{
  "_format": "hh-sol-artifact-1",
  "contractName": "PlanController",
  "sourceName": "contracts/PlanController.sol",
  "abi": [
    {
      "anonymous": false,
      "inputs": [
        {
          "indexed": false,
          "internalType": "address",
          "name": "_user",
          "type": "address"
        },
        {
          "indexed": false,
          "internalType": "address",
          "name": "_token",
          "type": "address"
        },
        {
          "indexed": false,
          "internalType": "uint256",
          "name": "_nftId",
          "type": "uint256"
        }
      ],
      "name": "SubscriptionCreated",
      "type": "event"
    },
    {
      "anonymous": false,
      "inputs": [
        {
          "indexed": false,
          "internalType": "address",
          "name": "_user",
          "type": "address"
        },
        {
          "indexed": false,
          "internalType": "address",
          "name": "_token",
          "type": "address"
        },
        {
          "indexed": false,
          "internalType": "uint256",
          "name": "_nftId",
          "type": "uint256"
        }
      ],
      "name": "SubscriptionFunded",
      "type": "event"
    },
    {
      "inputs": [
        {
          "internalType": "address",
          "name": "_underlyingToken",
          "type": "address"
        },
        {
          "internalType": "uint256",
          "name": "_price",
          "type": "uint256"
        }
      ],
      "name": "approveToken",
      "outputs": [],
      "stateMutability": "nonpayable",
      "type": "function"
    },
    {
      "inputs": [
        {
          "internalType": "address",
          "name": "_underlyingToken",
          "type": "address"
        }
      ],
      "name": "createSubscription",
      "outputs": [
        {
          "internalType": "uint256",
          "name": "",
          "type": "uint256"
        }
      ],
      "stateMutability": "nonpayable",
      "type": "function"
    },
    {
      "inputs": [
        {
          "internalType": "uint256",
          "name": "_nftId",
          "type": "uint256"
        }
      ],
      "name": "deleteStream",
      "outputs": [],
      "stateMutability": "nonpayable",
      "type": "function"
    },
    {
      "inputs": [
        {
          "internalType": "uint256",
          "name": "_nftId",
          "type": "uint256"
        }
      ],
      "name": "fundSubscription",
      "outputs": [],
      "stateMutability": "nonpayable",
      "type": "function"
    },
    {
      "inputs": [
        {
          "internalType": "uint256",
          "name": "_nftId",
          "type": "uint256"
        }
      ],
      "name": "getFlowRate",
      "outputs": [
        {
          "internalType": "int96",
          "name": "",
          "type": "int96"
        }
      ],
      "stateMutability": "view",
      "type": "function"
    },
    {
      "inputs": [
        {
          "internalType": "address",
          "name": "_underlyingToken",
          "type": "address"
        },
        {
          "internalType": "uint256",
          "name": "_amount",
          "type": "uint256"
        }
      ],
      "name": "getScaledBalance",
      "outputs": [
        {
          "internalType": "uint256",
          "name": "",
          "type": "uint256"
        }
      ],
      "stateMutability": "view",
      "type": "function"
    },
    {
      "inputs": [
        {
          "internalType": "uint256",
          "name": "_period",
          "type": "uint256"
        },
        {
          "internalType": "address",
          "name": "_provider",
          "type": "address"
        },
        {
          "internalType": "address",
          "name": "_launcher",
          "type": "address"
        },
        {
          "internalType": "address",
          "name": "_superTokenFactory",
          "type": "address"
        },
        {
          "internalType": "address",
          "name": "_constantFlowAgreement",
          "type": "address"
        },
        {
          "internalType": "address",
          "name": "_superfluidHost",
          "type": "address"
        },
        {
          "internalType": "address",
          "name": "_lendingPool",
          "type": "address"
        },
        {
          "internalType": "address",
          "name": "_lendingPoolAddressProvider",
          "type": "address"
        },
        {
          "internalType": "address",
          "name": "_treasury",
          "type": "address"
        }
      ],
      "name": "initialize",
      "outputs": [],
      "stateMutability": "nonpayable",
      "type": "function"
    },
    {
      "inputs": [
        {
          "internalType": "uint256",
          "name": "_nftId",
          "type": "uint256"
        }
      ],
      "name": "isSubscriptionActive",
      "outputs": [
        {
          "internalType": "bool",
          "name": "",
          "type": "bool"
        }
      ],
      "stateMutability": "view",
      "type": "function"
    },
    {
      "inputs": [],
      "name": "launcher",
      "outputs": [
        {
          "internalType": "contract ILauncher",
          "name": "",
          "type": "address"
        }
      ],
      "stateMutability": "view",
      "type": "function"
    },
    {
      "inputs": [],
      "name": "period",
      "outputs": [
        {
          "internalType": "uint256",
          "name": "",
          "type": "uint256"
        }
      ],
      "stateMutability": "view",
      "type": "function"
    },
    {
      "inputs": [],
      "name": "planFactory",
      "outputs": [
        {
          "internalType": "contract IPlanFactory",
          "name": "",
          "type": "address"
        }
      ],
      "stateMutability": "view",
      "type": "function"
    },
    {
      "inputs": [],
      "name": "provider",
      "outputs": [
        {
          "internalType": "address",
          "name": "",
          "type": "address"
        }
      ],
      "stateMutability": "view",
      "type": "function"
    },
    {
      "inputs": [],
      "name": "providerPool",
      "outputs": [
        {
          "internalType": "address",
          "name": "",
          "type": "address"
        }
      ],
      "stateMutability": "view",
      "type": "function"
    },
    {
      "inputs": [
        {
          "internalType": "address",
          "name": "_underlyingToken",
          "type": "address"
        }
      ],
      "name": "providerWithdrawal",
      "outputs": [],
      "stateMutability": "nonpayable",
      "type": "function"
    },
    {
      "inputs": [],
      "name": "subNFT",
      "outputs": [
        {
          "internalType": "contract ISubscriptionNFT",
          "name": "",
          "type": "address"
        }
      ],
      "stateMutability": "view",
      "type": "function"
    },
    {
      "inputs": [
        {
          "internalType": "address",
          "name": "",
          "type": "address"
        }
      ],
      "name": "subscriptionTokens",
      "outputs": [
        {
          "internalType": "contract PToken",
          "name": "pToken",
          "type": "address"
        },
        {
          "internalType": "contract ISuperToken",
          "name": "superToken",
          "type": "address"
        },
        {
          "internalType": "uint256",
          "name": "price",
          "type": "uint256"
        },
        {
          "internalType": "uint256",
          "name": "globalScaledBalance",
          "type": "uint256"
        },
        {
          "internalType": "bool",
          "name": "active",
          "type": "bool"
        }
      ],
      "stateMutability": "view",
      "type": "function"
    },
    {
      "inputs": [
        {
          "internalType": "uint256",
          "name": "",
          "type": "uint256"
        }
      ],
      "name": "subscriptionUsers",
      "outputs": [
        {
          "internalType": "address",
          "name": "underlyingToken",
          "type": "address"
        },
        {
          "internalType": "uint256",
          "name": "startTimestamp",
          "type": "uint256"
        },
        {
          "internalType": "uint256",
          "name": "endTimestamp",
          "type": "uint256"
        },
        {
          "internalType": "uint256",
          "name": "startLiquidityIndexArraySize",
          "type": "uint256"
        },
        {
          "internalType": "contract UserStreamWallet",
          "name": "userStreamWallet",
          "type": "address"
        },
        {
          "internalType": "uint256",
          "name": "scaledBalance",
          "type": "uint256"
        },
        {
          "internalType": "uint256",
          "name": "realAmount",
          "type": "uint256"
        }
      ],
      "stateMutability": "view",
      "type": "function"
    },
    {
      "inputs": [
        {
          "internalType": "address",
          "name": "_underlyingToken",
          "type": "address"
        }
      ],
      "name": "tokenIsActive",
      "outputs": [
        {
          "internalType": "bool",
          "name": "",
          "type": "bool"
        }
      ],
      "stateMutability": "view",
      "type": "function"
    },
    {
      "inputs": [],
      "name": "treasury",
      "outputs": [
        {
          "internalType": "address",
          "name": "",
          "type": "address"
        }
      ],
      "stateMutability": "view",
      "type": "function"
    },
    {
      "inputs": [],
      "name": "userPool",
      "outputs": [
        {
          "internalType": "address",
          "name": "",
          "type": "address"
        }
      ],
      "stateMutability": "view",
      "type": "function"
    },
    {
      "inputs": [
        {
          "internalType": "address",
          "name": "_underlyingToken",
          "type": "address"
        },
        {
          "internalType": "uint256",
          "name": "_index",
          "type": "uint256"
        }
      ],
      "name": "viewIndicesAndTimestamps",
      "outputs": [
        {
          "internalType": "uint256",
          "name": "liquidityIndex",
          "type": "uint256"
        },
        {
          "internalType": "uint256",
          "name": "timestamp",
          "type": "uint256"
        }
      ],
      "stateMutability": "view",
      "type": "function"
    },
    {
      "inputs": [
        {
          "internalType": "uint256",
          "name": "_nftId",
          "type": "uint256"
        }
      ],
      "name": "withdrawInterest",
      "outputs": [],
      "stateMutability": "nonpayable",
      "type": "function"
    }
  ],
  "bytecode": "0x608060405234801561001057600080fd5b5061554e806100206000396000f3fe60806040523480156200001157600080fd5b50600436106200013c5760003560e01c80636c44e78111620000b75780636c44e78114620002675780637d7ea04c146200029157806380274d23146200029b57806386dad12514620002b2578063b7757c5714620002bc578063c106065314620002d3578063d628192114620002ea578063dd6c43981462000301578063e375c0d6146200030b578063e5a77f481462000331578063ef78d4fd1462000348576200013c565b8063022fc88b1462000141578063085d4883146200015a57806308669aab146200017c57806316eebd1e14620001935780631adc6930146200019d57806338f7d50f14620001a75780633ed2e58714620001cd5780634ccd989414620001f45780634ebd6c1d146200022057806357e2c0f5146200023757806361d027b3146200025d575b600080fd5b620001586200015236600462002872565b62000352565b005b62000164620006cc565b60405162000173919062002a28565b60405180910390f35b620001586200018d366004620028c2565b620006db565b6200016462001182565b6200016462001191565b620001be620001b8366004620028c2565b620011a0565b60405162000173919062002bc2565b620001e4620001de36600462002872565b620011c8565b6040516200017392919062002ca2565b6200020b62000205366004620028c2565b62001270565b60405162000173979695949392919062002a79565b6200015862000231366004620028c2565b620012b9565b6200024e62000248366004620028c2565b620014b3565b60405162000173919062002abc565b62000164620014ca565b6200027e6200027836600462002834565b620014d9565b6040516200017395949392919062002b91565b6200016462001517565b62000158620002ac366004620028f4565b62001526565b620001646200176e565b62000158620002cd36600462002834565b6200177d565b62000158620002e4366004620028c2565b62001aac565b6200024e620002fb36600462002834565b62002066565b6200016462002087565b620003226200031c36600462002834565b6200209c565b60405162000173919062002c99565b620003226200034236600462002872565b62002117565b6200032262002237565b6006546001600160a01b031633146200036a57600080fd5b6001600160a01b0382166200037e57600080fd5b60015460405163883c042b60e01b81526001600160a01b039091169063883c042b90620003b090859060040162002a28565b60206040518083038186803b158015620003c957600080fd5b505afa158015620003de573d6000803e3d6000fd5b505050506040513d601f19601f82011682018060405250810190620004049190620028a0565b6200040e57600080fd5b6001600160a01b0382166000908152600d602052604090206006015460ff16156200043857600080fd5b6000604051620004489062002795565b604051809103906000f08015801562000465573d6000803e3d6000fd5b5090506000600860009054906101000a90046001600160a01b03166001600160a01b031663a6d0c53483846001600160a01b031663313ce5676040518163ffffffff1660e01b815260040160206040518083038186803b158015620004c957600080fd5b505afa158015620004de573d6000803e3d6000fd5b505050506040513d601f19601f82011682018060405250810190620005049190620029b7565b60006040518463ffffffff1660e01b8152600401620005269392919062002ae1565b602060405180830381600087803b1580156200054157600080fd5b505af115801562000556573d6000803e3d6000fd5b505050506040513d601f19601f820116820180604052508101906200057c919062002853565b6040805160e0810182526001600160a01b03808616825283166020820152908101859052909150606081016000604051908082528060200260200182016040528015620005d3578160200160208202803683370190505b508152602001600060405190808252806020026020018201604052801562000605578160200160208202803683370190505b50815260006020808301829052600160409384018190526001600160a01b03808a168452600d835292849020855181549085166001600160a01b0319918216178255868401519282018054939095169216919091179092559183015160028201556060830151805191926200068392600385019290910190620027a3565b5060808201518051620006a1916004840191602090910190620027a3565b5060a0820151600582015560c0909101516006909101805460ff191691151591909117905550505050565b6006546001600160a01b031681565b600054604051631c67f13f60e31b815282916201000090046001600160a01b03169063e33f89f8906200071390849060040162002c99565b602060405180830381600087803b1580156200072e57600080fd5b505af115801562000743573d6000803e3d6000fd5b505050506040513d601f19601f8201168201806040525081019062000769919062002853565b6001600160a01b0316336001600160a01b0316146200078757600080fd5b6000828152600e60209081526040808320815160e0808201845282546001600160a01b039081168084526001808601548589015260028087015486890152600380880154606080890191909152600489015486166080890152600589015460a089015260069098015460c0880152928a52600d8952878a208851958601895280548516865291820154909316848901529182015483870152810180548651818902810189019097528087529397969295919486019391929091908301828280156200087257602002820191906000526020600020905b8154815260200190600101908083116200085d575b5050505050815260200160048201805480602002602001604051908101604052809291908181526020018280548015620008cc57602002820191906000526020600020905b815481526020019060010190808311620008b7575b50505091835250506005820154602082015260069091015460ff16151560409091015260a08301519091506200090157600080fd5b60a0820151606083015160208401515b836060015151821080156200095657508460400151846080015183815181106200094b57634e487b7160e01b600052603260045260246000fd5b602002602001015111155b1562000a12576000846080015183815181106200098357634e487b7160e01b600052603260045260246000fd5b60200260200101519050620009d385606001518481518110620009b657634e487b7160e01b600052603260045260246000fd5b6020026020010151620009c98a620011a0565b600b0b906200223d565b620009df838362002d0e565b620009eb919062002cec565b620009f7908562002d0e565b935090508062000a0960018462002cb0565b92505062000911565b600080600b60009054906101000a90046001600160a01b03166001600160a01b0316630261bf8b6040518163ffffffff1660e01b815260040160206040518083038186803b15801562000a6457600080fd5b505afa15801562000a79573d6000803e3d6000fd5b505050506040513d601f19601f8201168201806040525081019062000a9f919062002853565b875160405163d15e005360e01b81526001600160a01b03929092169163d15e00539162000acf9160040162002a28565b60206040518083038186803b15801562000ae857600080fd5b505afa15801562000afd573d6000803e3d6000fd5b505050506040513d601f19601f8201168201806040525081019062000b239190620028db565b9050866040015142101562000b985762000b3d89620011a0565b600b0b83886040015162000b52919062002d0e565b62000b5e919062002cec565b62000b6a86836200232b565b62000b76919062002d0e565b915062000b8482826200223d565b62000b90908662002d0e565b945062000cd1565b600086608001515111801562000bec575060408701516080870151805162000bc39060019062002d0e565b8151811062000be257634e487b7160e01b600052603260045260246000fd5b6020026020010151115b1562000c705762000c6462000c328760600151868151811062000c1f57634e487b7160e01b600052603260045260246000fd5b6020026020010151620009c98c620011a0565b84896040015162000c44919062002d0e565b62000c50919062002cec565b62000c5c908762002d0e565b82906200232b565b91506000945062000cd1565b62000c7b89620011a0565b600b0b83886040015162000c90919062002d0e565b62000c9c919062002cec565b62000ca886836200232b565b62000cb4919062002d0e565b915062000cc282826200223d565b62000cce908662002d0e565b94505b600086602001516001600160a01b03166318160ddd6040518163ffffffff1660e01b815260040160206040518083038186803b15801562000d1157600080fd5b505afa15801562000d26573d6000803e3d6000fd5b505050506040513d601f19601f8201168201806040525081019062000d4c9190620028db565b6001548951604051630506601760e51b81529293506000926001600160a01b039092169163a0cc02e09162000d849160040162002a28565b60206040518083038186803b15801562000d9d57600080fd5b505afa15801562000db2573d6000803e3d6000fd5b505050506040513d601f19601f8201168201806040525081019062000dd8919062002853565b6001546040516370a0823160e01b81526001600160a01b03928316926370a082319262000e0b9291169060040162002a28565b60206040518083038186803b15801562000e2457600080fd5b505afa15801562000e39573d6000803e3d6000fd5b505050506040513d601f19601f8201168201806040525081019062000e5f9190620028db565b905060008262000e7d858b60a001516200232b90919063ffffffff16565b62000e89919062002d0e565b62000e95848462002d0e565b62000ea1908762002cec565b62000ead919062002ccb565b905062000edf6040518060400160405280600c81526020016b405265616c496e743a20257360a01b81525082620023f8565b62000f346040518060400160405280600c81526020016b40474c425f494e543a20257360a01b8152508462000f22878d60a001516200232b90919063ffffffff16565b62000f2e919062002d0e565b620023f8565b62000f646040518060400160405280600c81526020016b405553525f494e543a20257360a01b81525086620023f8565b62000fc06040518060400160405280600c81526020016b40474c425f53424c3a20257360a01b815250600d60008d600001516001600160a01b03166001600160a01b0316815260200190815260200160002060050154620023f8565b62000ff06040518060400160405280600c81526020016b405553525f53424c3a20257360a01b81525089620023f8565b60008c8152600e60205260409020600581018990556001810187905560608a015151600390910155895162001026908662002117565b8a516001600160a01b03166000908152600d6020526040812060050180549091906200105490849062002d0e565b92505081905550600160009054906101000a90046001600160a01b03166001600160a01b031663c5969d94600060029054906101000a90046001600160a01b03166001600160a01b031663e33f89f88f6040518263ffffffff1660e01b8152600401620010c2919062002c99565b602060405180830381600087803b158015620010dd57600080fd5b505af1158015620010f2573d6000803e3d6000fd5b505050506040513d601f19601f8201168201806040525081019062001118919062002853565b8c516040516001600160e01b031960e085901b16815262001140929190869060040162002a3c565b600060405180830381600087803b1580156200115b57600080fd5b505af115801562001170573d6000803e3d6000fd5b50505050505050505050505050505050565b6004546001600160a01b031681565b6001546001600160a01b031681565b6007546000828152600e60205260408120600601549091620011c29162002ccb565b92915050565b6001600160a01b0382166000908152600d602052604081206003018054829190849081106200120757634e487b7160e01b600052603260045260246000fd5b9060005260206000200154600d6000866001600160a01b03166001600160a01b0316815260200190815260200160002060040184815481106200125a57634e487b7160e01b600052603260045260246000fd5b9060005260206000200154915091509250929050565b600e6020526000908152604090208054600182015460028301546003840154600485015460058601546006909601546001600160a01b0395861696949593949293909116919087565b6006546001600160a01b03163314620012d157600080fd5b6000818152600e60209081526040808320815160e0808201845282546001600160a01b039081168084526001808601548589015260028087015486890152600380880154606080890191909152600489015486166080890152600589015460a089015260069098015460c0880152928a52600d8952878a20885195860189528054851686529182015490931684890152918201548387015281018054865181890281018901909752808752939796929591948601939192909190830182828015620013bc57602002820191906000526020600020905b815481526020019060010190808311620013a7575b50505050508152602001600482018054806020026020016040519081016040528092919081815260200182805480156200141657602002820191906000526020600020905b81548152602001906001019080831162001401575b5050509183525050600582015460208083019190915260069092015460ff1615156040918201526080850151918301516002549151635533d29f60e11b81529394506001600160a01b039283169363aa67a53e936200147a93169060040162002ac7565b600060405180830381600087803b1580156200149557600080fd5b505af1158015620014aa573d6000803e3d6000fd5b50505050505050565b6000908152600e6020526040902060020154421090565b6005546001600160a01b031681565b600d60205260009081526040902080546001820154600283015460058401546006909401546001600160a01b03938416949390921692909160ff1685565b6002546001600160a01b031681565b600054610100900460ff168062001540575060005460ff16155b620015685760405162461bcd60e51b81526004016200155f9062002c4b565b60405180910390fd5b600054610100900460ff1615801562001594576000805460ff1961ff0019909116610100171660011790555b600480546001600160a01b0319166001600160a01b038a81169190911780835560078d905560408051630570211360e31b815290519190921692632b810898928082019260209290918290030181600087803b158015620015f457600080fd5b505af115801562001609573d6000803e3d6000fd5b505050506040513d601f19601f820116820180604052508101906200162f919062002853565b600060026101000a8154816001600160a01b0302191690836001600160a01b031602179055506040516200166390620027f3565b604051809103906000f08015801562001680573d6000803e3d6000fd5b50600180546001600160a01b0319166001600160a01b0392909216919091179055604051620016af9062002801565b604051809103906000f080158015620016cc573d6000803e3d6000fd5b50600280546001600160a01b03199081166001600160a01b03938416179091556006805482168c841617905560038054339083161790556008805482168a8416179055600980548216898416179055600c80548216888416179055600a80548216878416179055600b8054821686841617905560058054909116918416919091179055801562001762576000805461ff00191690555b50505050505050505050565b6003546001600160a01b031681565b6006546001600160a01b031633146200179557600080fd5b6001600160a01b038082166000908152600d60205260408082206001015460025491516370a0823160e01b81529293908116926370a0823192620017de92169060040162002a28565b60206040518083038186803b158015620017f757600080fd5b505afa1580156200180c573d6000803e3d6000fd5b505050506040513d601f19601f82011682018060405250810190620018329190620028db565b600154600654604051633165a76560e21b81529293506001600160a01b039182169263c5969d94926200186e9216908690869060040162002a3c565b600060405180830381600087803b1580156200188957600080fd5b505af11580156200189e573d6000803e3d6000fd5b505050506001600160a01b038281166000908152600d6020908152604091829020600b548351630261bf8b60e01b815293516003909201941692630261bf8b926004808301939192829003018186803b158015620018fb57600080fd5b505afa15801562001910573d6000803e3d6000fd5b505050506040513d601f19601f8201168201806040525081019062001936919062002853565b6001600160a01b031663d15e0053846040518263ffffffff1660e01b815260040162001963919062002a28565b60206040518083038186803b1580156200197c57600080fd5b505afa15801562001991573d6000803e3d6000fd5b505050506040513d601f19601f82011682018060405250810190620019b79190620028db565b81546001818101845560009384526020808520909201929092556001600160a01b03808616808552600d8352604080862060048082018054808901825590895295882042960195909555600254929096529490930154935163873a68a760e01b81529281169363873a68a79362001a3693919092169186910162002a60565b600060405180830381600087803b15801562001a5157600080fd5b505af115801562001a66573d6000803e3d6000fd5b5050505062001a76828262002117565b6001600160a01b0383166000908152600d60205260408120600501805490919062001aa390849062002d0e565b90915550505050565b600054604051631c67f13f60e31b815282916201000090046001600160a01b03169063e33f89f89062001ae490849060040162002c99565b602060405180830381600087803b15801562001aff57600080fd5b505af115801562001b14573d6000803e3d6000fd5b505050506040513d601f19601f8201168201806040525081019062001b3a919062002853565b6001600160a01b0316336001600160a01b03161462001b5857600080fd5b6000828152600e60209081526040808320815160e0808201845282546001600160a01b039081168084526001808601548589015260028087015486890152600380880154606080890191909152600489015486166080890152600589015460a089015260069098015460c0880152838b52600d8a52888b2089519687018a5280548616875292830154909416858a01528101548488015291820180548751818a0281018a01909852808852949891979196939592949286019392909183018282801562001c4557602002820191906000526020600020905b81548152602001906001019080831162001c30575b505050505081526020016004820180548060200260200160405190810160405280929190818152602001828054801562001c9f57602002820191906000526020600020905b81548152602001906001019080831162001c8a575b50505091835250506005820154602082015260069091015460ff16151560409091015260c081015190915062001ce95760405162461bcd60e51b81526004016200155f9062002c09565b6003546040805163a001ecdd60e01b815290516000926001600160a01b03169163a001ecdd91600480830192602092919082900301818787803b15801562001d3057600080fd5b505af115801562001d45573d6000803e3d6000fd5b505050506040513d601f19601f8201168201806040525081019062001d6b9190620028db565b9050600061271082846040015162001d84919062002cec565b62001d90919062002ccb565b9050600081846040015162001da6919062002d0e565b6000898152600e60205260409020600601819055905062001dc984898362002445565b608086015160208501516002546001600160a01b039283169263623d994192911662001df58c620011a0565b6040518463ffffffff1660e01b815260040162001e159392919062002b6a565b600060405180830381600087803b15801562001e3057600080fd5b505af115801562001e45573d6000803e3d6000fd5b50506001546040516323b872dd60e01b81526001600160a01b03808a1694506323b872dd935062001e80923392911690869060040162002a3c565b602060405180830381600087803b15801562001e9b57600080fd5b505af115801562001eb0573d6000803e3d6000fd5b505050506040513d601f19601f8201168201806040525081019062001ed69190620028a0565b506005546040516323b872dd60e01b81526001600160a01b03808816926323b872dd9262001f0d9233921690879060040162002a3c565b602060405180830381600087803b15801562001f2857600080fd5b505af115801562001f3d573d6000803e3d6000fd5b505050506040513d601f19601f8201168201806040525081019062001f639190620028a0565b506001546040516375d0f29f60e01b81526001600160a01b03909116906375d0f29f9062001f98908890859060040162002a60565b600060405180830381600087803b15801562001fb357600080fd5b505af115801562001fc8573d6000803e3d6000fd5b5050505062001fd8858262002117565b6000898152600e602052604090206005810191909155426001909101819055600754620020059162002cb0565b6000898152600e60209081526040808320600281019490945560608801515160038501556005938401546001600160a01b038a168452600d909252822090920180549091906200205790849062002cb0565b90915550505050505050505050565b6001600160a01b03166000908152600d602052604090206006015460ff1690565b6000546201000090046001600160a01b031681565b6001600160a01b0381166000908152600d602052604081206006015460ff16620020c557600080fd5b6000620020d283620025e9565b90507f2eb629961acafe14e8322418dd8876662f9f38696815b5ff62645c0aaff358bf338483604051620021099392919062002a3c565b60405180910390a192915050565b600062002230600b60009054906101000a90046001600160a01b03166001600160a01b0316630261bf8b6040518163ffffffff1660e01b815260040160206040518083038186803b1580156200216c57600080fd5b505afa15801562002181573d6000803e3d6000fd5b505050506040513d601f19601f82011682018060405250810190620021a7919062002853565b6001600160a01b031663d15e0053856040518263ffffffff1660e01b8152600401620021d4919062002a28565b60206040518083038186803b158015620021ed57600080fd5b505afa15801562002202573d6000803e3d6000fd5b505050506040513d601f19601f82011682018060405250810190620022289190620028db565b83906200223d565b9392505050565b60075481565b604080518082019091526002815261035360f41b6020820152600090826200227a5760405162461bcd60e51b81526004016200155f919062002bd0565b5060006200228a60028462002ccb565b9050676765c793fa10079d601b1b620022a68260001962002d0e565b620022b2919062002ccb565b84111560405180604001604052806002815260200161068760f31b81525090620022f15760405162461bcd60e51b81526004016200155f919062002bd0565b5082816200230b676765c793fa10079d601b1b8762002cec565b62002317919062002cb0565b62002323919062002ccb565b949350505050565b600082158062002339575081155b156200234857506000620011c2565b81620023616002676765c793fa10079d601b1b62002ccb565b6200236f9060001962002d0e565b6200237b919062002ccb565b83111560405180604001604052806002815260200161068760f31b81525090620023ba5760405162461bcd60e51b81526004016200155f919062002bd0565b50676765c793fa10079d601b1b620023d460028262002ccb565b620023e0848662002cec565b620023ec919062002cb0565b62002230919062002ccb565b6200244182826040516024016200241192919062002be5565b60408051601f198184030181529190526020810180516001600160e01b03166309710a9d60e41b17905262002774565b5050565b82516040516340c10f1960e01b81526001600160a01b03909116906340c10f199062002478903090859060040162002a60565b600060405180830381600087803b1580156200249357600080fd5b505af1158015620024a8573d6000803e3d6000fd5b50508451602086015160405163095ea7b360e01b81526001600160a01b03909216935063095ea7b39250620024e291859060040162002a60565b602060405180830381600087803b158015620024fd57600080fd5b505af115801562002512573d6000803e3d6000fd5b505050506040513d601f19601f82011682018060405250810190620025389190620028a0565b5082602001516001600160a01b03166345977d03826040518263ffffffff1660e01b81526004016200256b919062002c99565b600060405180830381600087803b1580156200258657600080fd5b505af11580156200259b573d6000803e3d6000fd5b5050506020808501516000858152600e909252604091829020600490810154925163a9059cbb60e01b81526001600160a01b03928316945063a9059cbb936200147a93169186910162002a60565b600080546040516335313c2160e11b815282916201000090046001600160a01b031690636a627842906200262290339060040162002a28565b602060405180830381600087803b1580156200263d57600080fd5b505af115801562002652573d6000803e3d6000fd5b505050506040513d601f19601f82011682018060405250810190620026789190620028db565b600954600c546040519293506000926001600160a01b039283169290911690620026a2906200280f565b620026af92919062002ac7565b604051809103906000f080158015620026cc573d6000803e3d6000fd5b506040805160e0810182526001600160a01b03808816825260006020808401828152848601838152606086018481529785166080870190815260a0870185815260c088018681528c8752600e90955297909420955186549086166001600160a01b031991821617875591516001870155516002860155955160038501559051600484018054919093169516949094179055905160058201559051600690910155509050919050565b80516a636f6e736f6c652e6c6f67602083016000808483855afa5050505050565b6111098062002d5883390190565b828054828255906000526020600020908101928215620027e1579160200282015b82811115620027e1578251825591602001919060010190620027c4565b50620027ef9291506200281d565b5090565b6109628062003e6183390190565b61046580620047c383390190565b6108f18062004c2883390190565b5b80821115620027ef57600081556001016200281e565b60006020828403121562002846578081fd5b8135620022308162002d3e565b60006020828403121562002865578081fd5b8151620022308162002d3e565b6000806040838503121562002885578081fd5b8235620028928162002d3e565b946020939093013593505050565b600060208284031215620028b2578081fd5b8151801515811462002230578182fd5b600060208284031215620028d4578081fd5b5035919050565b600060208284031215620028ed578081fd5b5051919050565b60008060008060008060008060006101208a8c03121562002913578485fd5b8935985060208a0135620029278162002d3e565b975060408a0135620029398162002d3e565b965060608a01356200294b8162002d3e565b955060808a01356200295d8162002d3e565b945060a08a01356200296f8162002d3e565b935060c08a0135620029818162002d3e565b925060e08a0135620029938162002d3e565b91506101008a0135620029a68162002d3e565b809150509295985092959850929598565b600060208284031215620029c9578081fd5b815160ff8116811462002230578182fd5b60008151808452815b8181101562002a0157602081850181015186830182015201620029e3565b8181111562002a135782602083870101525b50601f01601f19169290920160200192915050565b6001600160a01b0391909116815260200190565b6001600160a01b039384168152919092166020820152604081019190915260600190565b6001600160a01b03929092168252602082015260400190565b6001600160a01b039788168152602081019690965260408601949094526060850192909252909316608083015260a082019290925260c081019190915260e00190565b901515815260200190565b6001600160a01b0392831681529116602082015260400190565b6001600160a01b038416815260ff8316602082015260006003831062002b1557634e487b7160e01b81526021600452602481fd5b82604083015260a06060830152600c60a08301526b29bab832b910382a37b5b2b760a11b60c083015260e06080830152600560e0830152640e0a8969cf60db1b61010083015261012082019050949350505050565b6001600160a01b039384168152919092166020820152600b9190910b604082015260600190565b6001600160a01b03958616815293909416602084015260408301919091526060820152901515608082015260a00190565b600b9190910b815260200190565b600060208252620022306020830184620029da565b60006040825262002bfa6040830185620029da565b90508260208301529392505050565b60208082526022908201527f506c616e436f6e74726f6c6c65723a20746f6b656e206e6f7420617070726f76604082015261195960f21b606082015260800190565b6020808252602e908201527f496e697469616c697a61626c653a20636f6e747261637420697320616c72656160408201526d191e481a5b9a5d1a585b1a5e995960921b606082015260800190565b90815260200190565b918252602082015260400190565b6000821982111562002cc65762002cc662002d28565b500190565b60008262002ce757634e487b7160e01b81526012600452602481fd5b500490565b600081600019048311821515161562002d095762002d0962002d28565b500290565b60008282101562002d235762002d2362002d28565b500390565b634e487b7160e01b600052601160045260246000fd5b6001600160a01b038116811462002d5457600080fd5b5056fe60806040523480156200001157600080fd5b506040805180820182526006815265282a37b5b2b760d11b602080830191825283518085019094526004845263282a25a760e11b9084015281519192916200005c91600391620000df565b50805162000072906004906020840190620000df565b505050600062000087620000db60201b60201c565b600580546001600160a01b0319166001600160a01b038316908117909155604051919250906000907f8be0079c531659141344cd1fd0a4f28419497f9722a3daafe3b4186f6b6457e0908290a350620001c2565b3390565b828054620000ed9062000185565b90600052602060002090601f0160209004810192826200011157600085556200015c565b82601f106200012c57805160ff19168380011785556200015c565b828001600101855582156200015c579182015b828111156200015c5782518255916020019190600101906200013f565b506200016a9291506200016e565b5090565b5b808211156200016a57600081556001016200016f565b6002810460018216806200019a57607f821691505b60208210811415620001bc57634e487b7160e01b600052602260045260246000fd5b50919050565b610f3780620001d26000396000f3fe608060405234801561001057600080fd5b50600436106100e05760003560e01c8063715018a611610087578063715018a61461019b5780638da5cb5b146101a357806395d89b41146101b85780639dc29fac146101c0578063a457c2d7146101d3578063a9059cbb146101e6578063dd62ed3e146101f9578063f2fde38b1461020c576100e0565b806306fdde03146100e5578063095ea7b31461010357806318160ddd1461012357806323b872dd14610138578063313ce5671461014b578063395093511461016057806340c10f191461017357806370a0823114610188575b600080fd5b6100ed61021f565b6040516100fa9190610ae1565b60405180910390f35b610116610111366004610a99565b6102b1565b6040516100fa9190610ad6565b61012b6102ce565b6040516100fa9190610e4a565b610116610146366004610a5e565b6102d4565b610153610374565b6040516100fa9190610e53565b61011661016e366004610a99565b610379565b610186610181366004610a99565b6103c8565b005b61012b610196366004610a0b565b610415565b610186610434565b6101ab6104bd565b6040516100fa9190610ac2565b6100ed6104cc565b6101866101ce366004610a99565b6104db565b6101166101e1366004610a99565b610524565b6101166101f4366004610a99565b61059f565b61012b610207366004610a2c565b6105b3565b61018661021a366004610a0b565b6105de565b60606003805461022e90610e90565b80601f016020809104026020016040519081016040528092919081815260200182805461025a90610e90565b80156102a75780601f1061027c576101008083540402835291602001916102a7565b820191906000526020600020905b81548152906001019060200180831161028a57829003601f168201915b5050505050905090565b60006102c56102be61069f565b84846106a3565b50600192915050565b60025490565b60006102e1848484610757565b6001600160a01b03841660009081526001602052604081208161030261069f565b6001600160a01b03166001600160a01b031681526020019081526020016000205490508281101561034e5760405162461bcd60e51b815260040161034590610c87565b60405180910390fd5b6103698561035a61069f565b6103648685610e79565b6106a3565b506001949350505050565b601290565b60006102c561038661069f565b84846001600061039461069f565b6001600160a01b03908116825260208083019390935260409182016000908120918b16815292529020546103649190610e61565b6103d061069f565b6001600160a01b03166103e16104bd565b6001600160a01b0316146104075760405162461bcd60e51b815260040161034590610ccf565b610411828261086d565b5050565b6001600160a01b0381166000908152602081905260409020545b919050565b61043c61069f565b6001600160a01b031661044d6104bd565b6001600160a01b0316146104735760405162461bcd60e51b815260040161034590610ccf565b6005546040516000916001600160a01b0316907f8be0079c531659141344cd1fd0a4f28419497f9722a3daafe3b4186f6b6457e0908390a3600580546001600160a01b0319169055565b6005546001600160a01b031690565b60606004805461022e90610e90565b6104e361069f565b6001600160a01b03166104f46104bd565b6001600160a01b03161461051a5760405162461bcd60e51b815260040161034590610ccf565b610411828261091b565b6000806001600061053361069f565b6001600160a01b039081168252602080830193909352604091820160009081209188168152925290205490508281101561057f5760405162461bcd60e51b815260040161034590610dce565b61059561058a61069f565b856103648685610e79565b5060019392505050565b60006102c56105ac61069f565b8484610757565b6001600160a01b03918216600090815260016020908152604080832093909416825291909152205490565b6105e661069f565b6001600160a01b03166105f76104bd565b6001600160a01b03161461061d5760405162461bcd60e51b815260040161034590610ccf565b6001600160a01b0381166106435760405162461bcd60e51b815260040161034590610bb9565b6005546040516001600160a01b038084169216907f8be0079c531659141344cd1fd0a4f28419497f9722a3daafe3b4186f6b6457e090600090a3600580546001600160a01b0319166001600160a01b0392909216919091179055565b3390565b6001600160a01b0383166106c95760405162461bcd60e51b815260040161034590610d8a565b6001600160a01b0382166106ef5760405162461bcd60e51b815260040161034590610bff565b6001600160a01b0380841660008181526001602090815260408083209487168084529490915290819020849055517f8c5be1e5ebec7d5bd14f71427d1e84f3dd0314c0f7b2291e5b200ac8c7c3b9259061074a908590610e4a565b60405180910390a3505050565b6001600160a01b03831661077d5760405162461bcd60e51b815260040161034590610d45565b6001600160a01b0382166107a35760405162461bcd60e51b815260040161034590610b34565b6107ae8383836109ef565b6001600160a01b038316600090815260208190526040902054818110156107e75760405162461bcd60e51b815260040161034590610c41565b6107f18282610e79565b6001600160a01b038086166000908152602081905260408082209390935590851681529081208054849290610827908490610e61565b92505081905550826001600160a01b0316846001600160a01b0316600080516020610ee28339815191528460405161085f9190610e4a565b60405180910390a350505050565b6001600160a01b0382166108935760405162461bcd60e51b815260040161034590610e13565b61089f600083836109ef565b80600260008282546108b19190610e61565b90915550506001600160a01b038216600090815260208190526040812080548392906108de908490610e61565b90915550506040516001600160a01b03831690600090600080516020610ee28339815191529061090f908590610e4a565b60405180910390a35050565b6001600160a01b0382166109415760405162461bcd60e51b815260040161034590610d04565b61094d826000836109ef565b6001600160a01b038216600090815260208190526040902054818110156109865760405162461bcd60e51b815260040161034590610b77565b6109908282610e79565b6001600160a01b038416600090815260208190526040812091909155600280548492906109be908490610e79565b90915550506040516000906001600160a01b03851690600080516020610ee28339815191529061074a908690610e4a565b505050565b80356001600160a01b038116811461042f57600080fd5b600060208284031215610a1c578081fd5b610a25826109f4565b9392505050565b60008060408385031215610a3e578081fd5b610a47836109f4565b9150610a55602084016109f4565b90509250929050565b600080600060608486031215610a72578081fd5b610a7b846109f4565b9250610a89602085016109f4565b9150604084013590509250925092565b60008060408385031215610aab578182fd5b610ab4836109f4565b946020939093013593505050565b6001600160a01b0391909116815260200190565b901515815260200190565b6000602080835283518082850152825b81811015610b0d57858101830151858201604001528201610af1565b81811115610b1e5783604083870101525b50601f01601f1916929092016040019392505050565b60208082526023908201527f45524332303a207472616e7366657220746f20746865207a65726f206164647260408201526265737360e81b606082015260800190565b60208082526022908201527f45524332303a206275726e20616d6f756e7420657863656564732062616c616e604082015261636560f01b606082015260800190565b60208082526026908201527f4f776e61626c653a206e6577206f776e657220697320746865207a65726f206160408201526564647265737360d01b606082015260800190565b60208082526022908201527f45524332303a20617070726f766520746f20746865207a65726f206164647265604082015261737360f01b606082015260800190565b60208082526026908201527f45524332303a207472616e7366657220616d6f756e7420657863656564732062604082015265616c616e636560d01b606082015260800190565b60208082526028908201527f45524332303a207472616e7366657220616d6f756e74206578636565647320616040820152676c6c6f77616e636560c01b606082015260800190565b6020808252818101527f4f776e61626c653a2063616c6c6572206973206e6f7420746865206f776e6572604082015260600190565b60208082526021908201527f45524332303a206275726e2066726f6d20746865207a65726f206164647265736040820152607360f81b606082015260800190565b60208082526025908201527f45524332303a207472616e736665722066726f6d20746865207a65726f206164604082015264647265737360d81b606082015260800190565b60208082526024908201527f45524332303a20617070726f76652066726f6d20746865207a65726f206164646040820152637265737360e01b606082015260800190565b60208082526025908201527f45524332303a2064656372656173656420616c6c6f77616e63652062656c6f77604082015264207a65726f60d81b606082015260800190565b6020808252601f908201527f45524332303a206d696e7420746f20746865207a65726f206164647265737300604082015260600190565b90815260200190565b60ff91909116815260200190565b60008219821115610e7457610e74610ecb565b500190565b600082821015610e8b57610e8b610ecb565b500390565b600281046001821680610ea457607f821691505b60208210811415610ec557634e487b7160e01b600052602260045260246000fd5b50919050565b634e487b7160e01b600052601160045260246000fdfeddf252ad1be2c89b69c2b068fc378daa952ba7f163c4a11628f55a4df523b3efa2646970667358221220935235a817d0bfecdfc555ff999ac9cef863ee3a31c509c15ac398cb0f0b571c64736f6c634300080000336080604052600180546001600160a01b031916734922eebff2d2d82dd112b1d662fd72b948a3c16e17905534801561003657600080fd5b506000610041610090565b600080546001600160a01b0319166001600160a01b0383169081178255604051929350917f8be0079c531659141344cd1fd0a4f28419497f9722a3daafe3b4186f6b6457e0908290a350610094565b3390565b6108bf806100a36000396000f3fe608060405234801561001057600080fd5b50600436106100785760003560e01c8063715018a61461007d57806375d0f29f14610087578063883c042b1461009a5780638da5cb5b146100c3578063a0cc02e0146100d8578063c5969d94146100eb578063e78cea92146100fe578063f2fde38b14610106575b600080fd5b610085610119565b005b610085610095366004610716565b6101ab565b6100ad6100a8366004610697565b6102fd565b6040516100ba91906107eb565b60405180910390f35b6100cb610384565b6040516100ba9190610779565b6100cb6100e6366004610697565b610393565b6100856100f93660046106d6565b610414565b6100cb6105c4565b610085610114366004610697565b6105d3565b610121610693565b6001600160a01b0316610132610384565b6001600160a01b0316146101615760405162461bcd60e51b81526004016101589061083c565b60405180910390fd5b600080546040516001600160a01b03909116907f8be0079c531659141344cd1fd0a4f28419497f9722a3daafe3b4186f6b6457e0908390a3600080546001600160a01b0319169055565b6101b3610693565b6001600160a01b03166101c4610384565b6001600160a01b0316146101ea5760405162461bcd60e51b81526004016101589061083c565b60015460405163a9059cbb60e01b81526001600160a01b038481169263a9059cbb9261021e929091169085906004016107b1565b602060405180830381600087803b15801561023857600080fd5b505af115801561024c573d6000803e3d6000fd5b505050506040513d601f19601f820116820180604052508101906102709190610741565b50600154604051630efe6a8b60e01b81526001600160a01b0390911690630efe6a8b906102a690859085906000906004016107ca565b602060405180830381600087803b1580156102c057600080fd5b505af11580156102d4573d6000803e3d6000fd5b505050506040513d601f19601f820116820180604052508101906102f89190610761565b505050565b60015460405163883c042b60e01b81526000916001600160a01b03169063883c042b9061032e908590600401610779565b60206040518083038186803b15801561034657600080fd5b505afa15801561035a573d6000803e3d6000fd5b505050506040513d601f19601f8201168201806040525081019061037e9190610741565b92915050565b6000546001600160a01b031690565b600154604051630506601760e51b81526000916001600160a01b03169063a0cc02e0906103c4908590600401610779565b60206040518083038186803b1580156103dc57600080fd5b505afa1580156103f0573d6000803e3d6000fd5b505050506040513d601f19601f8201168201806040525081019061037e91906106ba565b61041c610693565b6001600160a01b031661042d610384565b6001600160a01b0316146104535760405162461bcd60e51b81526004016101589061083c565b600154604051630506601760e51b81526001600160a01b039091169063a0cc02e090610483908590600401610779565b60206040518083038186803b15801561049b57600080fd5b505afa1580156104af573d6000803e3d6000fd5b505050506040513d601f19601f820116820180604052508101906104d391906106ba565b60015460405163a9059cbb60e01b81526001600160a01b039283169263a9059cbb926105069291169085906004016107b1565b602060405180830381600087803b15801561052057600080fd5b505af1158015610534573d6000803e3d6000fd5b505050506040513d601f19601f820116820180604052508101906105589190610741565b50600154604051636ce5768960e11b81526001600160a01b039091169063d9caed129061058d9086908690869060040161078d565b600060405180830381600087803b1580156105a757600080fd5b505af11580156105bb573d6000803e3d6000fd5b50505050505050565b6001546001600160a01b031681565b6105db610693565b6001600160a01b03166105ec610384565b6001600160a01b0316146106125760405162461bcd60e51b81526004016101589061083c565b6001600160a01b0381166106385760405162461bcd60e51b8152600401610158906107f6565b600080546040516001600160a01b03808516939216917f8be0079c531659141344cd1fd0a4f28419497f9722a3daafe3b4186f6b6457e091a3600080546001600160a01b0319166001600160a01b0392909216919091179055565b3390565b6000602082840312156106a8578081fd5b81356106b381610871565b9392505050565b6000602082840312156106cb578081fd5b81516106b381610871565b6000806000606084860312156106ea578182fd5b83356106f581610871565b9250602084013561070581610871565b929592945050506040919091013590565b60008060408385031215610728578182fd5b823561073381610871565b946020939093013593505050565b600060208284031215610752578081fd5b815180151581146106b3578182fd5b600060208284031215610772578081fd5b5051919050565b6001600160a01b0391909116815260200190565b6001600160a01b039384168152919092166020820152604081019190915260600190565b6001600160a01b03929092168252602082015260400190565b6001600160a01b039390931683526020830191909152604082015260600190565b901515815260200190565b60208082526026908201527f4f776e61626c653a206e6577206f776e657220697320746865207a65726f206160408201526564647265737360d01b606082015260800190565b6020808252818101527f4f776e61626c653a2063616c6c6572206973206e6f7420746865206f776e6572604082015260600190565b6001600160a01b038116811461088657600080fd5b5056fea264697066735822122058b5c70ba60088a345bf732c8b3445b8a1417b668bd2631e52e39f80fffe3db764736f6c63430008000033608060405234801561001057600080fd5b50600061001b61006a565b600080546001600160a01b0319166001600160a01b0383169081178255604051929350917f8be0079c531659141344cd1fd0a4f28419497f9722a3daafe3b4186f6b6457e0908290a35061006e565b3390565b6103e88061007d6000396000f3fe608060405234801561001057600080fd5b506004361061004c5760003560e01c8063715018a614610051578063873a68a71461005b5780638da5cb5b1461006e578063f2fde38b1461008c575b600080fd5b61005961009f565b005b6100596100693660046102e2565b610131565b6100766101d2565b604051610083919061030b565b60405180910390f35b61005961009a3660046102c1565b6101e1565b6100a76102a1565b6001600160a01b03166100b86101d2565b6001600160a01b0316146100e75760405162461bcd60e51b81526004016100de90610365565b60405180910390fd5b600080546040516001600160a01b03909116907f8be0079c531659141344cd1fd0a4f28419497f9722a3daafe3b4186f6b6457e0908390a3600080546001600160a01b0319169055565b6101396102a1565b6001600160a01b031661014a6101d2565b6001600160a01b0316146101705760405162461bcd60e51b81526004016100de90610365565b60405163fe9d930360e01b81526001600160a01b0383169063fe9d93039061019c90849060040161039a565b600060405180830381600087803b1580156101b657600080fd5b505af11580156101ca573d6000803e3d6000fd5b505050505050565b6000546001600160a01b031690565b6101e96102a1565b6001600160a01b03166101fa6101d2565b6001600160a01b0316146102205760405162461bcd60e51b81526004016100de90610365565b6001600160a01b0381166102465760405162461bcd60e51b81526004016100de9061031f565b600080546040516001600160a01b03808516939216917f8be0079c531659141344cd1fd0a4f28419497f9722a3daafe3b4186f6b6457e091a3600080546001600160a01b0319166001600160a01b0392909216919091179055565b3390565b80356001600160a01b03811681146102bc57600080fd5b919050565b6000602082840312156102d2578081fd5b6102db826102a5565b9392505050565b600080604083850312156102f4578081fd5b6102fd836102a5565b946020939093013593505050565b6001600160a01b0391909116815260200190565b60208082526026908201527f4f776e61626c653a206e6577206f776e657220697320746865207a65726f206160408201526564647265737360d01b606082015260800190565b6020808252818101527f4f776e61626c653a2063616c6c6572206973206e6f7420746865206f776e6572604082015260600190565b9081526040602082018190526000908201526060019056fea2646970667358221220a9373d04d4e4c6515b7efcf0dc90418fe915e37434a82a9d110317817e5464b864736f6c63430008000033608060405234801561001057600080fd5b506040516108f13803806108f183398101604081905261002f916100b8565b60006100396100b4565b600080546001600160a01b0319166001600160a01b0383169081178255604051929350917f8be0079c531659141344cd1fd0a4f28419497f9722a3daafe3b4186f6b6457e0908290a350600180546001600160a01b039384166001600160a01b03199182161790915560028054929093169116179055610109565b3390565b600080604083850312156100ca578182fd5b82516100d5816100f1565b60208401519092506100e6816100f1565b809150509250929050565b6001600160a01b038116811461010657600080fd5b50565b6107d9806101186000396000f3fe608060405234801561001057600080fd5b50600436106100625760003560e01c8063623d994114610067578063715018a61461007c5780638da5cb5b146100845780639c0b5f99146100a2578063aa67a53e146100aa578063f2fde38b146100bd575b600080fd5b61007a61007536600461058d565b6100d0565b005b61007a6101ff565b61008c610288565b6040516100999190610609565b60405180910390f35b61008c610297565b61007a6100b8366004610555565b6102a6565b61007a6100cb36600461048f565b6103cb565b6100d861048b565b6001600160a01b03166100e9610288565b6001600160a01b0316146101185760405162461bcd60e51b815260040161010f90610714565b60405180910390fd5b6002546001546040805160008152602081019091526001600160a01b03928316926339255d5b92169063317e182f60e11b9061015d9088908890889060448101610698565b60408051601f198184030181529181526020820180516001600160e01b03166001600160e01b03199485161790525160e085901b90921682526101a3929160040161061d565b600060405180830381600087803b1580156101bd57600080fd5b505af11580156101d1573d6000803e3d6000fd5b505050506040513d6000823e601f3d908101601f191682016040526101f991908101906104b2565b50505050565b61020761048b565b6001600160a01b0316610218610288565b6001600160a01b03161461023e5760405162461bcd60e51b815260040161010f90610714565b600080546040516001600160a01b03909116907f8be0079c531659141344cd1fd0a4f28419497f9722a3daafe3b4186f6b6457e0908390a3600080546001600160a01b0319169055565b6000546001600160a01b031690565b6002546001600160a01b031681565b6102ae61048b565b6001600160a01b03166102bf610288565b6001600160a01b0316146102e55760405162461bcd60e51b815260040161010f90610714565b6002546001546040805160008152602081019091526001600160a01b03928316926339255d5b921690635a5999e360e11b9061032a9087903090889060448101610664565b60408051601f198184030181529181526020820180516001600160e01b03166001600160e01b03199485161790525160e085901b9092168252610370929160040161061d565b600060405180830381600087803b15801561038a57600080fd5b505af115801561039e573d6000803e3d6000fd5b505050506040513d6000823e601f3d908101601f191682016040526103c691908101906104b2565b505050565b6103d361048b565b6001600160a01b03166103e4610288565b6001600160a01b03161461040a5760405162461bcd60e51b815260040161010f90610714565b6001600160a01b0381166104305760405162461bcd60e51b815260040161010f906106ce565b600080546040516001600160a01b03808516939216917f8be0079c531659141344cd1fd0a4f28419497f9722a3daafe3b4186f6b6457e091a3600080546001600160a01b0319166001600160a01b0392909216919091179055565b3390565b6000602082840312156104a0578081fd5b81356104ab8161078b565b9392505050565b6000602082840312156104c3578081fd5b815167ffffffffffffffff808211156104da578283fd5b818401915084601f8301126104ed578283fd5b8151818111156104ff576104ff610775565b604051601f8201601f19168101602001838111828210171561052357610523610775565b60405281815283820160200187101561053a578485fd5b61054b826020830160208701610749565b9695505050505050565b60008060408385031215610567578081fd5b82356105728161078b565b915060208301356105828161078b565b809150509250929050565b6000806000606084860312156105a1578081fd5b83356105ac8161078b565b925060208401356105bc8161078b565b91506040840135600b81900b81146105d2578182fd5b809150509250925092565b600081518084526105f5816020860160208601610749565b601f01601f19169290920160200192915050565b6001600160a01b0391909116815260200190565b6001600160a01b0383168152606060208201819052600090610641908301846105dd565b8281036040938401526002815261060f60f31b6020820152919091019392505050565b6001600160a01b03858116825284811660208301528316604082015260806060820181905260009061054b908301846105dd565b6001600160a01b03858116825284166020820152600b83900b604082015260806060820181905260009061054b908301846105dd565b60208082526026908201527f4f776e61626c653a206e6577206f776e657220697320746865207a65726f206160408201526564647265737360d01b606082015260800190565b6020808252818101527f4f776e61626c653a2063616c6c6572206973206e6f7420746865206f776e6572604082015260600190565b60005b8381101561076457818101518382015260200161074c565b838111156101f95750506000910152565b634e487b7160e01b600052604160045260246000fd5b6001600160a01b03811681146107a057600080fd5b5056fea264697066735822122063b4f723b3a069d6d05af1541df1f8e70eacc69149c71853400dcd27c8cd3b9364736f6c63430008000033a2646970667358221220259981781dfb5d04e249426e6f4ff2e3ea29a89b49360288cc1e504afc614b6c64736f6c63430008000033",
  "linkReferences": {},
  "deployedLinkReferences": {}
}